{
  "_format": "hh-sol-artifact-1",
  "contractName": "Marketplace",
  "sourceName": "contracts/Marketplace.sol",
  "abi": [
    {
      "inputs": [],
      "name": "InvalidERC721TransferAmount",
      "type": "error"
    },
    {
      "inputs": [],
      "name": "InvalidItemType",
      "type": "error"
    },
    {
      "anonymous": false,
      "inputs": [
        {
          "indexed": false,
          "internalType": "address",
          "name": "previousAdmin",
          "type": "address"
        },
        {
          "indexed": false,
          "internalType": "address",
          "name": "newAdmin",
          "type": "address"
        }
      ],
      "name": "AdminChanged",
      "type": "event"
    },
    {
      "anonymous": false,
      "inputs": [
        {
          "indexed": true,
          "internalType": "address",
          "name": "admin",
          "type": "address"
        },
        {
          "indexed": false,
          "internalType": "uint256",
          "name": "amount",
          "type": "uint256"
        }
      ],
      "name": "AdminWithdraw",
      "type": "event"
    },
    {
      "anonymous": false,
      "inputs": [
        {
          "indexed": true,
          "internalType": "address",
          "name": "beacon",
          "type": "address"
        }
      ],
      "name": "BeaconUpgraded",
      "type": "event"
    },
    {
      "anonymous": false,
      "inputs": [
        {
          "indexed": true,
          "internalType": "uint256",
          "name": "listingId",
          "type": "uint256"
        }
      ],
      "name": "Cancelled",
      "type": "event"
    },
    {
      "anonymous": false,
      "inputs": [
        {
          "indexed": true,
          "internalType": "address",
          "name": "updater",
          "type": "address"
        },
        {
          "indexed": false,
          "internalType": "uint256",
          "name": "reg",
          "type": "uint256"
        },
        {
          "indexed": false,
          "internalType": "uint256",
          "name": "fm",
          "type": "uint256"
        },
        {
          "indexed": false,
          "internalType": "uint256",
          "name": "admin",
          "type": "uint256"
        }
      ],
      "name": "FeesUpdate",
      "type": "event"
    },
    {
      "anonymous": false,
      "inputs": [
        {
          "indexed": false,
          "internalType": "uint8",
          "name": "version",
          "type": "uint8"
        }
      ],
      "name": "Initialized",
      "type": "event"
    },
    {
      "anonymous": false,
      "inputs": [
        {
          "indexed": true,
          "internalType": "uint256",
          "name": "listingId",
          "type": "uint256"
        }
      ],
      "name": "Listed",
      "type": "event"
    },
    {
      "anonymous": false,
      "inputs": [
        {
          "indexed": true,
          "internalType": "bytes32",
          "name": "role",
          "type": "bytes32"
        },
        {
          "indexed": true,
          "internalType": "bytes32",
          "name": "previousAdminRole",
          "type": "bytes32"
        },
        {
          "indexed": true,
          "internalType": "bytes32",
          "name": "newAdminRole",
          "type": "bytes32"
        }
      ],
      "name": "RoleAdminChanged",
      "type": "event"
    },
    {
      "anonymous": false,
      "inputs": [
        {
          "indexed": true,
          "internalType": "bytes32",
          "name": "role",
          "type": "bytes32"
        },
        {
          "indexed": true,
          "internalType": "address",
          "name": "account",
          "type": "address"
        },
        {
          "indexed": true,
          "internalType": "address",
          "name": "sender",
          "type": "address"
        }
      ],
      "name": "RoleGranted",
      "type": "event"
    },
    {
      "anonymous": false,
      "inputs": [
        {
          "indexed": true,
          "internalType": "bytes32",
          "name": "role",
          "type": "bytes32"
        },
        {
          "indexed": true,
          "internalType": "address",
          "name": "account",
          "type": "address"
        },
        {
          "indexed": true,
          "internalType": "address",
          "name": "sender",
          "type": "address"
        }
      ],
      "name": "RoleRevoked",
      "type": "event"
    },
    {
      "anonymous": false,
      "inputs": [
        {
          "indexed": true,
          "internalType": "address",
          "name": "staffMember",
          "type": "address"
        },
        {
          "indexed": true,
          "internalType": "address",
          "name": "collection",
          "type": "address"
        },
        {
          "indexed": false,
          "internalType": "address",
          "name": "ipHolder",
          "type": "address"
        },
        {
          "indexed": false,
          "internalType": "uint16",
          "name": "fee",
          "type": "uint16"
        }
      ],
      "name": "RoyaltyChanged",
      "type": "event"
    },
    {
      "anonymous": false,
      "inputs": [
        {
          "indexed": false,
          "internalType": "address",
          "name": "collection",
          "type": "address"
        },
        {
          "indexed": false,
          "internalType": "uint256",
          "name": "id",
          "type": "uint256"
        },
        {
          "indexed": false,
          "internalType": "address",
          "name": "ipholder",
          "type": "address"
        },
        {
          "indexed": false,
          "internalType": "uint256",
          "name": "amount",
          "type": "uint256"
        }
      ],
      "name": "RoyaltyPaid",
      "type": "event"
    },
    {
      "anonymous": false,
      "inputs": [
        {
          "indexed": true,
          "internalType": "address",
          "name": "staffMember",
          "type": "address"
        },
        {
          "indexed": true,
          "internalType": "address",
          "name": "collection",
          "type": "address"
        }
      ],
      "name": "RoyaltyRemoved",
      "type": "event"
    },
    {
      "anonymous": false,
      "inputs": [
        {
          "indexed": true,
          "internalType": "uint256",
          "name": "listingId",
          "type": "uint256"
        }
      ],
      "name": "Sold",
      "type": "event"
    },
    {
      "anonymous": false,
      "inputs": [
        {
          "indexed": true,
          "internalType": "address",
          "name": "admin",
          "type": "address"
        },
        {
          "indexed": false,
          "internalType": "address",
          "name": "newStaker",
          "type": "address"
        }
      ],
      "name": "StakerUpdated",
      "type": "event"
    },
    {
      "anonymous": false,
      "inputs": [
        {
          "indexed": true,
          "internalType": "address",
          "name": "implementation",
          "type": "address"
        }
      ],
      "name": "Upgraded",
      "type": "event"
    },
    {
      "inputs": [],
      "name": "DEFAULT_ADMIN_ROLE",
      "outputs": [
        {
          "internalType": "bytes32",
          "name": "",
          "type": "bytes32"
        }
      ],
      "stateMutability": "view",
      "type": "function"
    },
    {
      "inputs": [
        {
          "internalType": "uint256",
          "name": "_listingId",
          "type": "uint256"
        }
      ],
      "name": "activeListing",
      "outputs": [
        {
          "components": [
            {
              "internalType": "uint256",
              "name": "listingId",
              "type": "uint256"
            },
            {
              "internalType": "uint256",
              "name": "nftId",
              "type": "uint256"
            },
            {
              "internalType": "address",
              "name": "seller",
              "type": "address"
            },
            {
              "internalType": "address",
              "name": "nft",
              "type": "address"
            },
            {
              "internalType": "uint256",
              "name": "price",
              "type": "uint256"
            },
            {
              "internalType": "uint256",
              "name": "fee",
              "type": "uint256"
            },
            {
              "internalType": "address",
              "name": "purchaser",
              "type": "address"
            },
            {
              "internalType": "bool",
              "name": "is1155",
              "type": "bool"
            },
            {
              "internalType": "uint256",
              "name": "listingTime",
              "type": "uint256"
            },
            {
              "internalType": "uint256",
              "name": "saleTime",
              "type": "uint256"
            },
            {
              "internalType": "uint256",
              "name": "endingTime",
              "type": "uint256"
            },
            {
              "internalType": "uint256",
              "name": "royalty",
              "type": "uint256"
            }
          ],
          "internalType": "struct IterableMapping.Listing",
          "name": "",
          "type": "tuple"
        }
      ],
      "stateMutability": "view",
      "type": "function"
    },
    {
      "inputs": [
        {
          "internalType": "address",
          "name": "_address",
          "type": "address"
        }
      ],
      "name": "addToEscrow",
      "outputs": [],
      "stateMutability": "payable",
      "type": "function"
    },
    {
      "inputs": [
        {
          "internalType": "address[]",
          "name": "_tokens",
          "type": "address[]"
        },
        {
          "internalType": "uint256[]",
          "name": "_ids",
          "type": "uint256[]"
        },
        {
          "internalType": "address",
          "name": "_to",
          "type": "address"
        }
      ],
      "name": "bulkTransfer",
      "outputs": [],
      "stateMutability": "nonpayable",
      "type": "function"
    },
    {
      "inputs": [
        {
          "internalType": "address",
          "name": "_contract",
          "type": "address"
        },
        {
          "internalType": "uint256",
          "name": "_id",
          "type": "uint256"
        },
        {
          "internalType": "uint256",
          "name": "_price",
          "type": "uint256"
        }
      ],
      "name": "calculateRoyalty",
      "outputs": [
        {
          "internalType": "uint256",
          "name": "",
          "type": "uint256"
        }
      ],
      "stateMutability": "view",
      "type": "function"
    },
    {
      "inputs": [
        {
          "internalType": "address",
          "name": "_nft",
          "type": "address"
        },
        {
          "internalType": "uint256",
          "name": "_id",
          "type": "uint256"
        },
        {
          "internalType": "address",
          "name": "_seller",
          "type": "address"
        }
      ],
      "name": "cancelActive",
      "outputs": [],
      "stateMutability": "nonpayable",
      "type": "function"
    },
    {
      "inputs": [
        {
          "internalType": "uint256",
          "name": "_id",
          "type": "uint256"
        }
      ],
      "name": "cancelListing",
      "outputs": [],
      "stateMutability": "nonpayable",
      "type": "function"
    },
    {
      "inputs": [
        {
          "internalType": "uint256[]",
          "name": "_ids",
          "type": "uint256[]"
        }
      ],
      "name": "cancelListings",
      "outputs": [],
      "stateMutability": "nonpayable",
      "type": "function"
    },
    {
      "inputs": [
        {
          "internalType": "uint256",
          "name": "_listingId",
          "type": "uint256"
        }
      ],
      "name": "cancelledListing",
      "outputs": [
        {
          "components": [
            {
              "internalType": "uint256",
              "name": "listingId",
              "type": "uint256"
            },
            {
              "internalType": "uint256",
              "name": "nftId",
              "type": "uint256"
            },
            {
              "internalType": "address",
              "name": "seller",
              "type": "address"
            },
            {
              "internalType": "address",
              "name": "nft",
              "type": "address"
            },
            {
              "internalType": "uint256",
              "name": "price",
              "type": "uint256"
            },
            {
              "internalType": "uint256",
              "name": "fee",
              "type": "uint256"
            },
            {
              "internalType": "address",
              "name": "purchaser",
              "type": "address"
            },
            {
              "internalType": "bool",
              "name": "is1155",
              "type": "bool"
            },
            {
              "internalType": "uint256",
              "name": "listingTime",
              "type": "uint256"
            },
            {
              "internalType": "uint256",
              "name": "saleTime",
              "type": "uint256"
            },
            {
              "internalType": "uint256",
              "name": "endingTime",
              "type": "uint256"
            },
            {
              "internalType": "uint256",
              "name": "royalty",
              "type": "uint256"
            }
          ],
          "internalType": "struct IterableMapping.Listing",
          "name": "",
          "type": "tuple"
        }
      ],
      "stateMutability": "view",
      "type": "function"
    },
    {
      "inputs": [
        {
          "internalType": "uint256",
          "name": "_listingId",
          "type": "uint256"
        }
      ],
      "name": "completeListing",
      "outputs": [
        {
          "components": [
            {
              "internalType": "uint256",
              "name": "listingId",
              "type": "uint256"
            },
            {
              "internalType": "uint256",
              "name": "nftId",
              "type": "uint256"
            },
            {
              "internalType": "address",
              "name": "seller",
              "type": "address"
            },
            {
              "internalType": "address",
              "name": "nft",
              "type": "address"
            },
            {
              "internalType": "uint256",
              "name": "price",
              "type": "uint256"
            },
            {
              "internalType": "uint256",
              "name": "fee",
              "type": "uint256"
            },
            {
              "internalType": "address",
              "name": "purchaser",
              "type": "address"
            },
            {
              "internalType": "bool",
              "name": "is1155",
              "type": "bool"
            },
            {
              "internalType": "uint256",
              "name": "listingTime",
              "type": "uint256"
            },
            {
              "internalType": "uint256",
              "name": "saleTime",
              "type": "uint256"
            },
            {
              "internalType": "uint256",
              "name": "endingTime",
              "type": "uint256"
            },
            {
              "internalType": "uint256",
              "name": "royalty",
              "type": "uint256"
            }
          ],
          "internalType": "struct IterableMapping.Listing",
          "name": "",
          "type": "tuple"
        }
      ],
      "stateMutability": "view",
      "type": "function"
    },
    {
      "inputs": [
        {
          "components": [
            {
              "internalType": "enum ConduitItemType",
              "name": "itemType",
              "type": "uint8"
            },
            {
              "internalType": "address",
              "name": "token",
              "type": "address"
            },
            {
              "internalType": "address",
              "name": "from",
              "type": "address"
            },
            {
              "internalType": "address",
              "name": "to",
              "type": "address"
            },
            {
              "internalType": "uint256",
              "name": "identifier",
              "type": "uint256"
            },
            {
              "internalType": "uint256",
              "name": "amount",
              "type": "uint256"
            }
          ],
          "internalType": "struct ConduitTransfer[]",
          "name": "transferInformation",
          "type": "tuple[]"
        }
      ],
      "name": "executeTradesServer",
      "outputs": [],
      "stateMutability": "nonpayable",
      "type": "function"
    },
    {
      "inputs": [
        {
          "internalType": "address",
          "name": "user",
          "type": "address"
        }
      ],
      "name": "fee",
      "outputs": [
        {
          "internalType": "uint16",
          "name": "userFee",
          "type": "uint16"
        }
      ],
      "stateMutability": "view",
      "type": "function"
    },
    {
      "inputs": [
        {
          "internalType": "bytes32",
          "name": "role",
          "type": "bytes32"
        }
      ],
      "name": "getRoleAdmin",
      "outputs": [
        {
          "internalType": "bytes32",
          "name": "",
          "type": "bytes32"
        }
      ],
      "stateMutability": "view",
      "type": "function"
    },
    {
      "inputs": [
        {
          "internalType": "address",
          "name": "_contract",
          "type": "address"
        }
      ],
      "name": "getRoyalty",
      "outputs": [
        {
          "components": [
            {
              "internalType": "address",
              "name": "ipHolder",
              "type": "address"
            },
            {
              "internalType": "uint16",
              "name": "percent",
              "type": "uint16"
            }
          ],
          "internalType": "struct Port.Royalty",
          "name": "",
          "type": "tuple"
        }
      ],
      "stateMutability": "view",
      "type": "function"
    },
    {
      "inputs": [
        {
          "internalType": "address",
          "name": "_contract",
          "type": "address"
        },
        {
          "internalType": "uint256",
          "name": "_id",
          "type": "uint256"
        },
        {
          "internalType": "uint256",
          "name": "_price",
          "type": "uint256"
        }
      ],
      "name": "getStandardNFTRoyalty",
      "outputs": [
        {
          "internalType": "address",
          "name": "ipHolder",
          "type": "address"
        },
        {
          "internalType": "uint256",
          "name": "royaltyAmount",
          "type": "uint256"
        }
      ],
      "stateMutability": "view",
      "type": "function"
    },
    {
      "inputs": [
        {
          "internalType": "bytes32",
          "name": "role",
          "type": "bytes32"
        },
        {
          "internalType": "address",
          "name": "account",
          "type": "address"
        }
      ],
      "name": "grantRole",
      "outputs": [],
      "stateMutability": "nonpayable",
      "type": "function"
    },
    {
      "inputs": [
        {
          "internalType": "bytes32",
          "name": "role",
          "type": "bytes32"
        },
        {
          "internalType": "address",
          "name": "account",
          "type": "address"
        }
      ],
      "name": "hasRole",
      "outputs": [
        {
          "internalType": "bool",
          "name": "",
          "type": "bool"
        }
      ],
      "stateMutability": "view",
      "type": "function"
    },
    {
      "inputs": [
        {
          "internalType": "contract IERC1155",
          "name": "_memberships",
          "type": "address"
        }
      ],
      "name": "initialize",
      "outputs": [],
      "stateMutability": "nonpayable",
      "type": "function"
    },
    {
      "inputs": [
        {
          "internalType": "address",
          "name": "_contract",
          "type": "address"
        }
      ],
      "name": "isBundleContract",
      "outputs": [
        {
          "internalType": "bool",
          "name": "",
          "type": "bool"
        }
      ],
      "stateMutability": "view",
      "type": "function"
    },
    {
      "inputs": [
        {
          "internalType": "address",
          "name": "user",
          "type": "address"
        }
      ],
      "name": "isFM",
      "outputs": [
        {
          "internalType": "bool",
          "name": "",
          "type": "bool"
        }
      ],
      "stateMutability": "view",
      "type": "function"
    },
    {
      "inputs": [
        {
          "internalType": "address",
          "name": "user",
          "type": "address"
        }
      ],
      "name": "isMember",
      "outputs": [
        {
          "internalType": "bool",
          "name": "",
          "type": "bool"
        }
      ],
      "stateMutability": "view",
      "type": "function"
    },
    {
      "inputs": [
        {
          "internalType": "address",
          "name": "_contract",
          "type": "address"
        }
      ],
      "name": "isRoyaltyStandard",
      "outputs": [
        {
          "internalType": "bool",
          "name": "",
          "type": "bool"
        }
      ],
      "stateMutability": "view",
      "type": "function"
    },
    {
      "inputs": [
        {
          "internalType": "address",
          "name": "user",
          "type": "address"
        }
      ],
      "name": "isVIP",
      "outputs": [
        {
          "internalType": "bool",
          "name": "",
          "type": "bool"
        }
      ],
      "stateMutability": "view",
      "type": "function"
    },
    {
      "inputs": [
        {
          "internalType": "uint256",
          "name": "_id",
          "type": "uint256"
        },
        {
          "internalType": "address",
          "name": "_buyer",
          "type": "address"
        }
      ],
      "name": "makeLegacyPurchase",
      "outputs": [],
      "stateMutability": "payable",
      "type": "function"
    },
    {
      "inputs": [
        {
          "internalType": "address",
          "name": "_nft",
          "type": "address"
        },
        {
          "internalType": "uint256",
          "name": "_id",
          "type": "uint256"
        },
        {
          "internalType": "uint256",
          "name": "_price",
          "type": "uint256"
        }
      ],
      "name": "makeListing",
      "outputs": [],
      "stateMutability": "nonpayable",
      "type": "function"
    },
    {
      "inputs": [
        {
          "internalType": "address",
          "name": "_seller",
          "type": "address"
        },
        {
          "internalType": "address",
          "name": "_nft",
          "type": "address"
        },
        {
          "internalType": "uint256",
          "name": "_id",
          "type": "uint256"
        },
        {
          "internalType": "uint256",
          "name": "_price",
          "type": "uint256"
        }
      ],
      "name": "makeListingServer",
      "outputs": [],
      "stateMutability": "nonpayable",
      "type": "function"
    },
    {
      "inputs": [
        {
          "internalType": "address[]",
          "name": "_nfts",
          "type": "address[]"
        },
        {
          "internalType": "uint256[]",
          "name": "_ids",
          "type": "uint256[]"
        },
        {
          "internalType": "uint256[]",
          "name": "_prices",
          "type": "uint256[]"
        }
      ],
      "name": "makeListings",
      "outputs": [],
      "stateMutability": "nonpayable",
      "type": "function"
    },
    {
      "inputs": [],
      "name": "memberFee",
      "outputs": [
        {
          "internalType": "uint16",
          "name": "",
          "type": "uint16"
        }
      ],
      "stateMutability": "view",
      "type": "function"
    },
    {
      "inputs": [],
      "name": "membershipStaker",
      "outputs": [
        {
          "internalType": "contract IMembershipStaker",
          "name": "",
          "type": "address"
        }
      ],
      "stateMutability": "view",
      "type": "function"
    },
    {
      "inputs": [
        {
          "internalType": "address",
          "name": "_contract",
          "type": "address"
        },
        {
          "internalType": "uint256",
          "name": "_id",
          "type": "uint256"
        },
        {
          "internalType": "uint256",
          "name": "_price",
          "type": "uint256"
        }
      ],
      "name": "payRoyalty",
      "outputs": [],
      "stateMutability": "payable",
      "type": "function"
    },
    {
      "inputs": [
        {
          "internalType": "address",
          "name": "_contract",
          "type": "address"
        },
        {
          "internalType": "uint256",
          "name": "_id",
          "type": "uint256"
        },
        {
          "internalType": "uint256",
          "name": "_price",
          "type": "uint256"
        }
      ],
      "name": "payRoyaltyServer",
      "outputs": [],
      "stateMutability": "payable",
      "type": "function"
    },
    {
      "inputs": [
        {
          "internalType": "address",
          "name": "dest",
          "type": "address"
        }
      ],
      "name": "payments",
      "outputs": [
        {
          "internalType": "uint256",
          "name": "",
          "type": "uint256"
        }
      ],
      "stateMutability": "view",
      "type": "function"
    },
    {
      "inputs": [
        {
          "internalType": "uint256",
          "name": "_id",
          "type": "uint256"
        }
      ],
      "name": "priceLookup",
      "outputs": [
        {
          "internalType": "uint256",
          "name": "",
          "type": "uint256"
        }
      ],
      "stateMutability": "view",
      "type": "function"
    },
    {
      "inputs": [],
      "name": "proxiableUUID",
      "outputs": [
        {
          "internalType": "bytes32",
          "name": "",
          "type": "bytes32"
        }
      ],
      "stateMutability": "view",
      "type": "function"
    },
    {
      "inputs": [],
      "name": "regFee",
      "outputs": [
        {
          "internalType": "uint16",
          "name": "",
          "type": "uint16"
        }
      ],
      "stateMutability": "view",
      "type": "function"
    },
    {
      "inputs": [
        {
          "internalType": "address",
          "name": "_nftContract",
          "type": "address"
        },
        {
          "internalType": "address",
          "name": "_ipHolder",
          "type": "address"
        },
        {
          "internalType": "uint16",
          "name": "_fee",
          "type": "uint16"
        }
      ],
      "name": "registerRoyalty",
      "outputs": [],
      "stateMutability": "nonpayable",
      "type": "function"
    },
    {
      "inputs": [
        {
          "internalType": "address",
          "name": "_nftContract",
          "type": "address"
        },
        {
          "internalType": "address",
          "name": "_paymentAddress",
          "type": "address"
        },
        {
          "internalType": "uint16",
          "name": "_fee",
          "type": "uint16"
        }
      ],
      "name": "registerRoyaltyAsOwner",
      "outputs": [],
      "stateMutability": "nonpayable",
      "type": "function"
    },
    {
      "inputs": [
        {
          "internalType": "address",
          "name": "_nftContract",
          "type": "address"
        }
      ],
      "name": "removeRoyalty",
      "outputs": [],
      "stateMutability": "nonpayable",
      "type": "function"
    },
    {
      "inputs": [
        {
          "internalType": "bytes32",
          "name": "role",
          "type": "bytes32"
        },
        {
          "internalType": "address",
          "name": "account",
          "type": "address"
        }
      ],
      "name": "renounceRole",
      "outputs": [],
      "stateMutability": "nonpayable",
      "type": "function"
    },
    {
      "inputs": [
        {
          "internalType": "bytes32",
          "name": "role",
          "type": "bytes32"
        },
        {
          "internalType": "address",
          "name": "account",
          "type": "address"
        }
      ],
      "name": "revokeRole",
      "outputs": [],
      "stateMutability": "nonpayable",
      "type": "function"
    },
    {
      "inputs": [
        {
          "internalType": "address",
          "name": "",
          "type": "address"
        }
      ],
      "name": "royalties",
      "outputs": [
        {
          "internalType": "address",
          "name": "ipHolder",
          "type": "address"
        },
        {
          "internalType": "uint16",
          "name": "percent",
          "type": "uint16"
        }
      ],
      "stateMutability": "view",
      "type": "function"
    },
    {
      "inputs": [],
      "name": "serverRole",
      "outputs": [
        {
          "internalType": "bytes32",
          "name": "",
          "type": "bytes32"
        }
      ],
      "stateMutability": "pure",
      "type": "function"
    },
    {
      "inputs": [
        {
          "internalType": "address",
          "name": "_membershipStaker",
          "type": "address"
        }
      ],
      "name": "setMembershipStaker",
      "outputs": [],
      "stateMutability": "nonpayable",
      "type": "function"
    },
    {
      "inputs": [
        {
          "internalType": "address",
          "name": "_ryoshi",
          "type": "address"
        }
      ],
      "name": "setRyoshi",
      "outputs": [],
      "stateMutability": "nonpayable",
      "type": "function"
    },
    {
      "inputs": [
        {
          "internalType": "address",
          "name": "_user",
          "type": "address"
        },
        {
          "internalType": "bool",
          "name": "_optIn",
          "type": "bool"
        }
      ],
      "name": "setUseEscrow",
      "outputs": [],
      "stateMutability": "nonpayable",
      "type": "function"
    },
    {
      "inputs": [],
      "name": "sigRole",
      "outputs": [
        {
          "internalType": "bytes32",
          "name": "",
          "type": "bytes32"
        }
      ],
      "stateMutability": "pure",
      "type": "function"
    },
    {
      "inputs": [],
      "name": "staffRole",
      "outputs": [
        {
          "internalType": "bytes32",
          "name": "",
          "type": "bytes32"
        }
      ],
      "stateMutability": "pure",
      "type": "function"
    },
    {
      "inputs": [
        {
          "internalType": "bytes4",
          "name": "interfaceId",
          "type": "bytes4"
        }
      ],
      "name": "supportsInterface",
      "outputs": [
        {
          "internalType": "bool",
          "name": "",
          "type": "bool"
        }
      ],
      "stateMutability": "view",
      "type": "function"
    },
    {
      "inputs": [
        {
          "internalType": "address[]",
          "name": "_tokens",
          "type": "address[]"
        },
        {
          "internalType": "uint256[]",
          "name": "_ids",
          "type": "uint256[]"
        },
        {
          "internalType": "address",
          "name": "_from",
          "type": "address"
        },
        {
          "internalType": "address",
          "name": "_to",
          "type": "address"
        }
      ],
      "name": "transferBulkServer",
      "outputs": [],
      "stateMutability": "nonpayable",
      "type": "function"
    },
    {
      "inputs": [
        {
          "internalType": "enum ConduitItemType",
          "name": "_type",
          "type": "uint8"
        },
        {
          "internalType": "address",
          "name": "_tokenAddress",
          "type": "address"
        },
        {
          "internalType": "address",
          "name": "_from",
          "type": "address"
        },
        {
          "internalType": "address",
          "name": "_to",
          "type": "address"
        },
        {
          "internalType": "uint256",
          "name": "_identifier",
          "type": "uint256"
        },
        {
          "internalType": "uint256",
          "name": "_amount",
          "type": "uint256"
        }
      ],
      "name": "transferToken",
      "outputs": [],
      "stateMutability": "nonpayable",
      "type": "function"
    },
    {
      "inputs": [
        {
          "internalType": "uint16",
          "name": "_regFee",
          "type": "uint16"
        },
        {
          "internalType": "uint16",
          "name": "_memFee",
          "type": "uint16"
        },
        {
          "internalType": "uint16",
          "name": "_vipFee",
          "type": "uint16"
        }
      ],
      "name": "updateFees",
      "outputs": [],
      "stateMutability": "nonpayable",
      "type": "function"
    },
    {
      "inputs": [
        {
          "internalType": "address",
          "name": "newImplementation",
          "type": "address"
        }
      ],
      "name": "upgradeTo",
      "outputs": [],
      "stateMutability": "nonpayable",
      "type": "function"
    },
    {
      "inputs": [
        {
          "internalType": "address",
          "name": "newImplementation",
          "type": "address"
        },
        {
          "internalType": "bytes",
          "name": "data",
          "type": "bytes"
        }
      ],
      "name": "upgradeToAndCall",
      "outputs": [],
      "stateMutability": "payable",
      "type": "function"
    },
    {
      "inputs": [],
      "name": "upgraderRole",
      "outputs": [
        {
          "internalType": "bytes32",
          "name": "",
          "type": "bytes32"
        }
      ],
      "stateMutability": "pure",
      "type": "function"
    },
    {
      "inputs": [
        {
          "internalType": "address",
          "name": "_user",
          "type": "address"
        }
      ],
      "name": "useEscrow",
      "outputs": [
        {
          "internalType": "bool",
          "name": "",
          "type": "bool"
        }
      ],
      "stateMutability": "view",
      "type": "function"
    },
    {
      "inputs": [],
      "name": "vipFee",
      "outputs": [
        {
          "internalType": "uint16",
          "name": "",
          "type": "uint16"
        }
      ],
      "stateMutability": "view",
      "type": "function"
    },
    {
      "inputs": [],
      "name": "withdraw",
      "outputs": [],
      "stateMutability": "nonpayable",
      "type": "function"
    },
    {
      "inputs": [
        {
          "internalType": "address payable",
          "name": "payee",
          "type": "address"
        }
      ],
      "name": "withdrawPayments",
      "outputs": [],
      "stateMutability": "nonpayable",
      "type": "function"
    },
    {
      "stateMutability": "payable",
      "type": "receive"
    }
  ],
  "bytecode": "0x60a06040523060601b6080523480156200001857600080fd5b50600054610100900460ff168062000033575060005460ff16155b6200009b5760405162461bcd60e51b815260206004820152602e60248201527f496e697469616c697a61626c653a20636f6e747261637420697320616c72656160448201526d191e481a5b9a5d1a585b1a5e995960921b606482015260840160405180910390fd5b600054610100900460ff16158015620000be576000805461ffff19166101011790555b8015620000d1576000805461ff00191690555b5060805160601c61539d620001066000396000818161117f015281816111bf0152818161138c01526113cc015261539d6000f3fe60806040526004361061036f5760003560e01c806379c7550f116101c6578063c2168d59116100f7578063e0966dad11610095578063eb61e3711161006f578063eb61e37114610a5b578063f4201c3c14610aed578063f72c0d8b14610b0d578063f89f7ab314610b4157600080fd5b8063e0966dad146109fd578063e1053f4e14610a18578063e2982c2114610a3b57600080fd5b8063c9272fb9116100d1578063c9272fb91461097a578063d30988831461099a578063d547741f146109bd578063dfa3d773146109dd57600080fd5b8063c2168d5914610927578063c4175a4414610947578063c4d66de81461095a57600080fd5b8063a230c52411610164578063b78eebe51161013e578063b78eebe51461088e578063bfd7b7e9146108c7578063c1b875c8146108e7578063c1fa3ee01461090757600080fd5b8063a230c52414610821578063a68928e214610841578063ac7d126e1461086157600080fd5b806391d14854116101a057806391d148541461076b5780639b8cfe521461078b5780639fa6b4a0146107a6578063a217fddf1461080c57600080fd5b806379c7550f1461070657806385290fa1146107265780638fff20f31461074857600080fd5b80633659cfe6116102a05780634a0fc3d71161023e5780635775960011610218578063577596001461067e57806363ea104514610693578063670babe0146106b35780636fcca69b146106d357600080fd5b80634a0fc3d71461063d5780634f1ef286146106585780635382f5991461066b57600080fd5b806339fbd7381161027a57806339fbd738146105e05780633ccfd60b1461060d5780634065da631461061557806342c6e7fd1461062857600080fd5b80633659cfe61461058d57806337c39279146105ad57806339f3dc5a146105c057600080fd5b80632a7e7aa41161030d57806331b3eb94116102e757806331b3eb941461050d578063322aac8f1461052d57806332fac3071461054d57806336568abe1461056d57600080fd5b80632a7e7aa4146104ad5780632f2ff15d146104cd578063305a67a8146104ed57600080fd5b806318cf28341161034957806318cf2834146104045780631afadd3714610446578063248a9ca3146104685780632a5ff0021461049857600080fd5b806301ffc9a71461037b57806307386bdd146103b057806316406a85146103e457600080fd5b3661037657005b600080fd5b34801561038757600080fd5b5061039b6103963660046145aa565b610b61565b60405190151581526020015b60405180910390f35b3480156103bc57600080fd5b506103cb63152a902d60e11b81565b6040516001600160e01b031990911681526020016103a7565b3480156103f057600080fd5b5061039b6103ff3660046141e5565b610b98565b34801561041057600080fd5b506104387fa8a7bc421f721cb936ea99efdad79237e6ee0b871a2a08cf648691f9584cdc7781565b6040519081526020016103a7565b34801561045257600080fd5b506104666104613660046143a7565b610c26565b005b34801561047457600080fd5b50610438610483366004614563565b60009081526065602052604090206001015490565b3480156104a457600080fd5b50610438610d25565b3480156104b957600080fd5b506104666104c83660046145d2565b610d36565b3480156104d957600080fd5b506104666104e836600461457b565b610db3565b3480156104f957600080fd5b50610466610508366004614563565b610dde565b34801561051957600080fd5b506104666105283660046141e5565b610fe7565b34801561053957600080fd5b5061046661054836600461421d565b611023565b34801561055957600080fd5b5061039b6105683660046141e5565b6110da565b34801561057957600080fd5b5061046661058836600461457b565b6110f6565b34801561059957600080fd5b506104666105a83660046141e5565b611174565b6104666105bb366004614503565b61123d565b3480156105cc57600080fd5b506104666105db366004614503565b6112be565b3480156105ec57600080fd5b506106006105fb366004614685565b61130a565b6040516103a79190614819565b610466611320565b6104666106233660046141e5565b61136b565b34801561063457600080fd5b50610438611375565b34801561064957600080fd5b506103cb630dd472c160e21b81565b610466610666366004614263565b611381565b610466610679366004614373565b611437565b34801561068a57600080fd5b506104386114a4565b34801561069f57600080fd5b506106006106ae366004614685565b6114b0565b3480156106bf57600080fd5b506104666106ce366004614642565b6114bf565b3480156106df57600080fd5b506106f36106ee3660046141e5565b611562565b60405161ffff90911681526020016103a7565b34801561071257600080fd5b50610466610721366004614373565b611653565b34801561073257600080fd5b5061043860008051602061532183398151915281565b34801561075457600080fd5b50610160546106f390600160c01b900461ffff1681565b34801561077757600080fd5b5061039b61078636600461457b565b611b8d565b34801561079757600080fd5b506103cb636cdb3d1360e11b81565b3480156107b257600080fd5b506107ea6107c13660046141e5565b610171602052600090815260409020546001600160a01b03811690600160a01b900461ffff1682565b604080516001600160a01b03909316835261ffff9091166020830152016103a7565b34801561081857600080fd5b50610438600081565b34801561082d57600080fd5b5061039b61083c3660046141e5565b611bb8565b34801561084d57600080fd5b5061043861085c366004614373565b611bd2565b34801561086d57600080fd5b5061088161087c366004614563565b611d19565b6040516103a791906149b8565b34801561089a57600080fd5b50610172546108af906001600160a01b031681565b6040516001600160a01b0390911681526020016103a7565b3480156108d357600080fd5b506108816108e2366004614563565b611dcf565b3480156108f357600080fd5b506104666109023660046141e5565b611de3565b34801561091357600080fd5b50610600610922366004614685565b611e4e565b34801561093357600080fd5b50610881610942366004614563565b611e5d565b610466610955366004614563565b611e71565b34801561096657600080fd5b506104666109753660046141e5565b6121c2565b34801561098657600080fd5b506104666109953660046141e5565b6122b9565b3480156109a657600080fd5b50610160546106f390600160b01b900461ffff1681565b3480156109c957600080fd5b506104666109d836600461457b565b61231d565b3480156109e957600080fd5b506104666109f8366004614332565b612343565b348015610a0957600080fd5b506103cb6380ac58cd60e01b81565b348015610a2457600080fd5b50610160546106f390600160a01b900461ffff1681565b348015610a4757600080fd5b50610438610a563660046141e5565b6123ac565b348015610a6757600080fd5b50610ac5610a763660046141e5565b604080518082018252600080825260209182018190526001600160a01b03938416815261017182528290208251808401909352549283168252600160a01b90920461ffff169181019190915290565b6040805182516001600160a01b0316815260209283015161ffff1692810192909252016103a7565b348015610af957600080fd5b5061039b610b083660046141e5565b61242a565b348015610b1957600080fd5b506104387f189ab7a9244df0848122154315af71fe140f3db0fe014031783b0946b8c9d2e381565b348015610b4d57600080fd5b5061039b610b5c3660046141e5565b61256b565b60006001600160e01b03198216637965db0b60e01b1480610b9257506301ffc9a760e01b6001600160e01b03198316145b92915050565b61016054604051627eeac760e11b81526001600160a01b03838116600483015260016024830152600092839291169062fdd58e9060440160206040518083038186803b158015610be757600080fd5b505afa158015610bfb573d6000803e3d6000fd5b505050506040513d601f19601f82011682018060405250810190610c1f919061466d565b1192915050565b8483148015610c3457508481145b610c745760405162461bcd60e51b815260206004820152600c60248201526b6d697373696e67206461746160a01b60448201526064015b60405180910390fd5b60005b85811015610d1c57610d0a878783818110610ca257634e487b7160e01b600052603260045260246000fd5b9050602002016020810190610cb791906141e5565b868684818110610cd757634e487b7160e01b600052603260045260246000fd5b90506020020135858585818110610cfe57634e487b7160e01b600052603260045260246000fd5b90506020020135611653565b80610d1481614ae3565b915050610c77565b50505050505050565b6000610d3161016b5490565b905090565b610d607fa8a7bc421f721cb936ea99efdad79237e6ee0b871a2a08cf648691f9584cdc7733611b8d565b610d9d5760405162461bcd60e51b815260206004820152600e60248201526d1b9bdd08185d5d1a1bdc9a5e995960921b6044820152606401610c6b565b610dab868686868686612587565b505050505050565b600082815260656020526040902060010154610dcf81336126c7565b610dd9838361272b565b505050565b60008181526101626020526040902054610e275760405162461bcd60e51b815260206004820152600a6024820152691a5b9d985b1a59081a5960b21b6044820152606401610c6b565b6000610e35610161836127b1565b6040805161018081018252825481526001830154602082015260028301546001600160a01b0390811692820183905260038401548116606083015260048401546080830152600584015460a0830152600684015490811660c0830152600160a01b900460ff16151560e0820152600783015461010082015260088301546101208201526009830154610140820152600a90920154610160830152909150331480610ef25750610ef260008051602061532183398151915233611b8d565b80610f225750610f227fa8a7bc421f721cb936ea99efdad79237e6ee0b871a2a08cf648691f9584cdc7733611b8d565b610f5b5760405162461bcd60e51b815260206004820152600a6024820152693737ba103634b9ba32b960b11b6044820152606401610c6b565b4261012082015260008281526101626020526040902054610f80905b610161906127d5565b610fb882604051602001610f9691815260200190565b60408051601f19818403018152919052805160209091012061016b9083612967565b60405182907fc41d93b8bfbf9fd7cf5bfe271fd649ab6a6fec0ea101c23b82a2a28eca2533a990600090a25050565b600261012e54141561100b5760405162461bcd60e51b8152600401610c6b90614981565b600261012e5561101a81612b7b565b50600161012e55565b60008051602061532183398151915261103c81336126c7565b6040805180820182526001600160a01b0385811680835261ffff86811660208086018281528b861660008181526101718452899020975188549251909516600160a01b026001600160b01b031990921694909616939093179290921790945584519182528101929092529133917f9c33f160728db2e0d663d19462fc54c52fef3827d82f8e2bf7431872caa03687910160405180910390a350505050565b6000610b926001600160a01b03831663152a902d60e11b612bd7565b6001600160a01b03811633146111665760405162461bcd60e51b815260206004820152602f60248201527f416363657373436f6e74726f6c3a2063616e206f6e6c792072656e6f756e636560448201526e103937b632b9903337b91039b2b63360891b6064820152608401610c6b565b6111708282612bf3565b5050565b306001600160a01b037f00000000000000000000000000000000000000000000000000000000000000001614156111bd5760405162461bcd60e51b8152600401610c6b9061489b565b7f00000000000000000000000000000000000000000000000000000000000000006001600160a01b03166111ef612c5a565b6001600160a01b0316146112155760405162461bcd60e51b8152600401610c6b906148e7565b61121e81612c88565b6040805160008082526020820190925261123a91839190612cb3565b50565b600261012e5414156112615760405162461bcd60e51b8152600401610c6b90614981565b600261012e5560005b818110156112b3576112a183838381811061129557634e487b7160e01b600052603260045260246000fd5b90506020020135611e71565b806112ab81614ae3565b91505061126a565b5050600161012e5550565b60005b81811015610dd9576112f88383838181106112ec57634e487b7160e01b600052603260045260246000fd5b90506020020135610dde565b8061130281614ae3565b9150506112c1565b60606113196101668484612df7565b9392505050565b600061132c81336126c7565b60405147815233907fba443e8671971c36cdeb74f87321041daff421230cbc5e36cb835269ed1d8b7e9060200160405180910390a261123a3347613028565b61123a8134613141565b6000610d316101665490565b306001600160a01b037f00000000000000000000000000000000000000000000000000000000000000001614156113ca5760405162461bcd60e51b8152600401610c6b9061489b565b7f00000000000000000000000000000000000000000000000000000000000000006001600160a01b03166113fc612c5a565b6001600160a01b0316146114225760405162461bcd60e51b8152600401610c6b906148e7565b61142b82612c88565b61117082826001612cb3565b6000341161144457505050565b6000611451848484611bd2565b90503481146114935760405162461bcd60e51b815260206004820152600e60248201526d1a5b9d985b1a5908185b5bdd5b9d60921b6044820152606401610c6b565b61149e84848461319d565b50505050565b6000610d316101615490565b60606113196101618484612df7565b60006114cb81336126c7565b610160805463ffffffff60b01b1916600160c01b61ffff87811691820261ffff60b01b191692909217600160b01b8784169081029190911761ffff60a01b1916600160a01b938716938402179093556040805191825260208201939093529182015233907f93d3bfdb56bc52c00ef2f1ffdff11a306cb6e5f2ef404c9c1bcd5bf27e88c92f9060600160405180910390a250505050565b61016054604051627eeac760e11b81526001600160a01b03838116600483015260036024830152600092839291169062fdd58e9060440160206040518083038186803b1580156115b157600080fd5b505afa1580156115c5573d6000803e3d6000fd5b505050506040513d601f19601f820116820180604052508101906115e9919061466d565b11156115f757506000919050565b6116008261242a565b1561161a575061016054600160a01b900461ffff16919050565b61162382610b98565b1561163d575061016054600160b01b900461ffff16919050565b5061016054600160c01b900461ffff165b919050565b600081116116935760405162461bcd60e51b815260206004820152600d60248201526c696e76616c696420707269636560981b6044820152606401610c6b565b60006116af6001600160a01b038516636cdb3d1360e11b612bd7565b905060006116cd6001600160a01b0386166380ac58cd60e01b612bd7565b905081806116d85750805b6117175760405162461bcd60e51b815260206004820152601060248201526f756e737570706f72746564207479706560801b6044820152606401610c6b565b801561189f576040516331a9108f60e11b81526004810185905233906001600160a01b03871690636352211e9060240160206040518083038186803b15801561175f57600080fd5b505afa158015611773573d6000803e3d6000fd5b505050506040513d601f19601f820116820180604052508101906117979190614201565b6001600160a01b0316146117d95760405162461bcd60e51b81526020600482015260096024820152681b9bdd081bdddb995960ba1b6044820152606401610c6b565b60405163e985e9c560e01b81523360048201523060248201526001600160a01b0386169063e985e9c59060440160206040518083038186803b15801561181e57600080fd5b505afa158015611832573d6000803e3d6000fd5b505050506040513d601f19601f820116820180604052508101906118569190614543565b61189a5760405162461bcd60e51b815260206004820152601560248201527436bab9ba1030b8383937bb32903a3930b739b332b960591b6044820152606401610c6b565b611a18565b604051627eeac760e11b8152336004820152602481018590526000906001600160a01b0387169062fdd58e9060440160206040518083038186803b1580156118e657600080fd5b505afa1580156118fa573d6000803e3d6000fd5b505050506040513d601f19601f8201168201806040525081019061191e919061466d565b116119575760405162461bcd60e51b81526020600482015260096024820152681b9bdd081bdddb995960ba1b6044820152606401610c6b565b60405163e985e9c560e01b81523360048201523060248201526001600160a01b0386169063e985e9c59060440160206040518083038186803b15801561199c57600080fd5b505afa1580156119b0573d6000803e3d6000fd5b505050506040513d601f19601f820116820180604052508101906119d49190614543565b611a185760405162461bcd60e51b815260206004820152601560248201527436bab9ba1030b8383937bb32903a3930b739b332b960591b6044820152606401610c6b565b6000853386604051602001611a2f939291906147f5565b6040516020818303038152906040528051906020012090506000611a54878787611bd2565b6000838152610165602052604090205490915060ff1615611ae05760008281526101636020526040902060048101869055611a9f611a9133611562565b879061ffff16612710613308565b6005820155600a810182905580546040517ff3ecdc9ffda52c5ad69793c567cb456f83bba2d14f196542e0be80c919a8bda390600090a25050505050505050565b611ae861408f565b6101705481526020810187905233604082018190526001600160a01b038916606083015260808201879052611b2090611a9190611562565b60a082015284151560e0820152426101008201526101608101829052611b496101618483612967565b611b5861017080546001019055565b80516040517ff3ecdc9ffda52c5ad69793c567cb456f83bba2d14f196542e0be80c919a8bda390600090a25050505050505050565b60009182526065602090815260408084206001600160a01b0393909316845291905290205460ff1690565b6000611bc382610b98565b80610b925750610b928261242a565b600080611bde8561256b565b15611d0257604051635af67c8960e11b81526004810185905260009081906001600160a01b0388169063b5ecf9129060240160006040518083038186803b158015611c2857600080fd5b505afa158015611c3c573d6000803e3d6000fd5b505050506040513d6000823e601f3d908101601f19168201604052611c64919081019061443d565b815191935091506000611c77878361341a565b905060005b82811015611cf8576000611cdf868381518110611ca957634e487b7160e01b600052603260045260246000fd5b6020026020010151868481518110611cd157634e487b7160e01b600052603260045260246000fd5b602002602001015185613426565b9150611ced90508188614a1c565b965050600101611c7c565b5050505050611d11565b611d0d858585613426565b9150505b949350505050565b611d2161408f565b611d2d61016b836127b1565b6040805161018081018252825481526001830154602082015260028301546001600160a01b039081169282019290925260038301548216606082015260048301546080820152600583015460a0820152600683015491821660c0820152600160a01b90910460ff16151560e0820152600782015461010082015260088201546101208201526009820154610140820152600a9091015461016082015292915050565b611dd761408f565b611d2d610161836127b1565b600080516020615321833981519152611dfc81336126c7565b6001600160a01b0382166000818152610171602052604080822080546001600160b01b03191690555133917f8e70db61b60e9c9516e5635687db011153ad00e07f5f478698a3a7bb3d6a883f91a35050565b606061131961016b8484612df7565b611e6561408f565b611d2d610166836127b1565b600261012e541415611e955760405162461bcd60e51b8152600401610c6b90614981565b600261012e5560008181526101626020526040902054611ee45760405162461bcd60e51b815260206004820152600a6024820152691a5b9d985b1a59081a5960b21b6044820152606401610c6b565b6000611ef2610161836127b1565b604080516101808101825282548152600183015460208083019190915260028401546001600160a01b039081168385015260038501548116606084015260048501546080840152600585015460a0840152600685015490811660c0840152600160a01b900460ff16151560e0830152600784015461010083015260088401546101208301526009840154610140830152600a909301546101608201526000858152610162909352912054909150611fa890610f77565b3360c0820152426101208201526040805160208101849052611fe7910160408051601f1981840301815291905280516020909101206101669083612967565b806080015134101561202e5760405162461bcd60e51b815260206004820152601060248201526f6e6f7420656e6f7567682066756e647360801b6044820152606401610c6b565b8060e0015115612059576120546003826060015183604001513385602001516001612587565b612075565b6120756002826060015183604001513385602001516001612587565b610172546001600160a01b03161561213e5760a081015160009061209c9060016002613308565b610172546040519192506000916001600160a01b039091169083908381818185875af1925050503d80600081146120ef576040519150601f19603f3d011682016040523d82523d6000602084013e6120f4565b606091505b505090508061213b5760405162461bcd60e51b81526020600482015260136024820152721d1c985b9cd9995c881999594819985a5b1959606a1b6044820152606401610c6b565b50505b6101608101511561215c5761215c816060015183836080015161319d565b61218d81604001518261016001518360a00151846080015161217e9190614a67565b6121889190614a67565b613141565b60405182907f92f64ca637d023f354075a4be751b169c1a8a9ccb6d33cdd0cb352054399572790600090a25050600161012e55565b600054610100900460ff16806121db575060005460ff16155b6121f75760405162461bcd60e51b8152600401610c6b90614933565b600054610100900460ff16158015612219576000805461ffff19166101011790555b61222161360e565b612229613691565b6122316136ef565b61223961374e565b61224460003361272b565b61226e7f189ab7a9244df0848122154315af71fe140f3db0fe014031783b0946b8c9d2e33361272b565b61016080546001600160a01b0384166001600160b01b031990911617604b60a11b1763ffffffff60b01b1916627d004b60b21b1790558015611170576000805461ff00191690555050565b60006122c581336126c7565b61017280546001600160a01b0319166001600160a01b03841690811790915560405190815233907fe8c4d4251ccaaa5d3e3937cf5c7c9d281260ff0b8bf5f914fb4dde280eee7dee9060200160405180910390a25050565b60008281526065602052604090206001015461233981336126c7565b610dd98383612bf3565b600083828460405160200161235a939291906147f5565b60408051808303601f190181529181528151602092830120600081815261016590935291205490915060ff161561149e5760008181526101636020526040902080546123a590610dde565b5050505050565b60fb546040516371d4ed8d60e11b81526001600160a01b038381166004830152600092169063e3a9db1a9060240160206040518083038186803b1580156123f257600080fd5b505afa158015612406573d6000803e3d6000fd5b505050506040513d601f19601f82011682018060405250810190610b92919061466d565b61016054604051627eeac760e11b81526001600160a01b03838116600483015260026024830152600092839291169062fdd58e9060440160206040518083038186803b15801561247957600080fd5b505afa15801561248d573d6000803e3d6000fd5b505050506040513d601f19601f820116820180604052508101906124b1919061466d565b11156124bf57506001919050565b610172546001600160a01b031615801590612556575061017254604051630ef40a6760e41b81526001600160a01b038481166004830152600092169063ef40a6709060240160206040518083038186803b15801561251c57600080fd5b505afa158015612530573d6000803e3d6000fd5b505050506040513d601f19601f82011682018060405250810190612554919061466d565b115b1561256357506001919050565b506000919050565b6000610b926001600160a01b038316630dd472c160e21b612bd7565b6040805160c081018252600080825260208201819052918101829052606081018290526080810182905260a0810191909152604080516001808252818301909252600091816020015b6040805160c08101825260008082526020808301829052928201819052606082018190526080820181905260a082015282526000199092019101816125d05790505090508188600381111561263557634e487b7160e01b600052602160045260246000fd5b9081600381111561265657634e487b7160e01b600052602160045260246000fd5b9052506001600160a01b0380881660208401528681166040840152851660608301526080820184905260a082018390528051829082906000906126a957634e487b7160e01b600052603260045260246000fd5b60200260200101819052506126bd816137ad565b5050505050505050565b6126d18282611b8d565b611170576126e9816001600160a01b031660146137f8565b6126f48360206137f8565b604051602001612705929190614780565b60408051601f198184030181529082905262461bcd60e51b8252610c6b91600401614868565b6127358282611b8d565b6111705760008281526065602090815260408083206001600160a01b03851684529091529020805460ff1916600117905561276d3390565b6001600160a01b0316816001600160a01b0316837f2f8788117e7eff1d82e926ec794901d17c78024a50270940304540a733656f0d60405160405180910390a45050565b60008181526001830160209081526040808320548352600285019091528120611319565b600081815260048301602052604090205460ff166127f1575050565b6000818152600280840160209081526040808420805485526001808801845282862086905586865260048089018552838720805460ff1916905586835582820187905594820180546001600160a01b031990811690915560038084018054909216909155948201869055600582018690556006820180546001600160a81b0319169055600782018690556008820186905560098201869055600a90910185905592860190915282205484549092916128a891614a67565b905060008460000182815481106128cf57634e487b7160e01b600052603260045260246000fd5b60009182526020808320909101548083526003880190915260408083208690558683528220919091558554909150819086908590811061291f57634e487b7160e01b600052603260045260246000fd5b600091825260209091200155845485908061294a57634e487b7160e01b600052603160045260246000fd5b600190038181906000526020600020016000905590555050505050565b600082815260048401602052604090205460ff1615612a625760008281526002848101602090815260408084208551808255868401516001808401919091558784015195830180546001600160a01b03199081166001600160a01b039889161790915560608901516003850180549092169088161790556080880151600484015560a0880151600584015560c088015160068401805460e08b0151929098166001600160a81b031990981697909717600160a01b911515919091021790955561010087015160078301556101208701516008830155610140870151600983015561016090960151600a90910155938352940190935290912055565b6000828152600484810160209081526040808420805460ff19166001908117909155600280890184528286208751815587850151818401558784015191810180546001600160a01b039384166001600160a01b031991821617909155606089015160038084018054928616929093169190911790915560808901519682019690965560a0880151600582015560c088015160068201805460e08b01511515600160a01b026001600160a81b0319909116929094169190911792909217909155610100870151600782015561012087015160088201556101408701516009820155610160870151600a9091015587549388018352818520849055838101885587855282852090930186905593518352940190935290912055565b60fb546040516351cff8d960e01b81526001600160a01b038381166004830152909116906351cff8d9906024015b600060405180830381600087803b158015612bc357600080fd5b505af11580156123a5573d6000803e3d6000fd5b6000612be2836139da565b801561131957506113198383613a0d565b612bfd8282611b8d565b156111705760008281526065602090815260408083206001600160a01b0385168085529252808320805460ff1916905551339285917ff6391f5c32d9c69d2a47ea670b442974b53935d1edc7fd64eb21e047a839171b9190a45050565b7f360894a13ba1a3210667c828492db98dca3e2076cc3735a920a3ca505d382bbc546001600160a01b031690565b7f189ab7a9244df0848122154315af71fe140f3db0fe014031783b0946b8c9d2e361117081336126c7565b6000612cbd612c5a565b9050612cc884613a96565b600083511180612cd55750815b15612ce657612ce48484613b3b565b505b7f4910fdfa16fed3260ed0e7147f7cc6da11a60208b5b9406d12a635614ffd9143805460ff166123a557805460ff191660011781556040516001600160a01b0383166024820152612d6590869060440160408051601f198184030181529190526020810180516001600160e01b0316631b2ce7f360e11b179052613b3b565b50805460ff19168155612d76612c5a565b6001600160a01b0316826001600160a01b031614612dee5760405162461bcd60e51b815260206004820152602f60248201527f45524331393637557067726164653a207570677261646520627265616b73206660448201526e75727468657220757067726164657360881b6064820152608401610c6b565b6123a585613c26565b6060612e01845490565b612e3e576040805160008082526020820190925290612e36565b612e2361408f565b815260200190600190039081612e1b5790505b509050611319565b60008261ffff1667ffffffffffffffff811115612e6b57634e487b7160e01b600052604160045260246000fd5b604051908082528060200260200182016040528015612ea457816020015b612e9161408f565b815260200190600190039081612e895790505b50905060008061ffff8516612eb98782614a48565b612ec39190614a67565b90505b612ed48661ffff8716614a48565b81101561301d5786548110612ee85761301d565b612f2f87886000018381548110612f0f57634e487b7160e01b600052603260045260246000fd5b906000526020600020015460009081526002919091016020526040902090565b6040805161018081018252825481526001830154602082015260028301546001600160a01b039081169282019290925260038301548216606082015260048301546080820152600583015460a0820152600683015491821660c0820152600160a01b90910460ff16151560e0820152600782015461010082015260088201546101208201526009820154610140820152600a909101546101608201528351849061ffff8516908110612ff157634e487b7160e01b600052603260045260246000fd5b6020026020010181905250818061300790614ac1565b925050808061301590614ae3565b915050612ec6565b509095945050505050565b804710156130785760405162461bcd60e51b815260206004820152601d60248201527f416464726573733a20696e73756666696369656e742062616c616e63650000006044820152606401610c6b565b6000826001600160a01b03168260405160006040518083038185875af1925050503d80600081146130c5576040519150601f19603f3d011682016040523d82523d6000602084013e6130ca565b606091505b5050905080610dd95760405162461bcd60e51b815260206004820152603a60248201527f416464726573733a20756e61626c6520746f2073656e642076616c75652c207260448201527f6563697069656e74206d617920686176652072657665727465640000000000006064820152608401610c6b565b60fb5460405163f340fa0160e01b81526001600160a01b0384811660048301529091169063f340fa019083906024016000604051808303818588803b15801561318957600080fd5b505af1158015610d1c573d6000803e3d6000fd5b6131a68361256b565b156132d657604051635af67c8960e11b81526004810183905260009081906001600160a01b0386169063b5ecf9129060240160006040518083038186803b1580156131f057600080fd5b505afa158015613204573d6000803e3d6000fd5b505050506040513d6000823e601f3d908101601f1916820160405261322c919081019061443d565b81519193509150600061323f858361341a565b905060005b828110156126bd576000806132a887848151811061327257634e487b7160e01b600052603260045260246000fd5b602002602001015187858151811061329a57634e487b7160e01b600052603260045260246000fd5b602002602001015186613426565b90925090506001600160a01b0382166132c2575050613244565b6132cc8282613141565b5050600101613244565b6000806132e4858585613426565b90925090506001600160a01b0382166132fe575050505050565b6123a58282613141565b600080821161334c5760405162461bcd60e51b815260206004820152601060248201526f4469766973696f6e206279207a65726f60801b6044820152606401610c6b565b8361335957506000611319565b60006133658486614a48565b9050836133728683614a34565b141561338a576133828382614a34565b915050611319565b60006133968487614a34565b905060006133a48588614afe565b905060006133b28688614a34565b905060006133c08789614afe565b905061340d6133d9886133d38685613c66565b9061341a565b6134076133e68686613c66565b6134076133f38987613c66565b6134078d6134018c8b613c66565b90613c66565b90613c72565b9998505050505050505050565b60006113198284614a34565b6000806134436001600160a01b038616636cdb3d1360e11b612bd7565b8061346357506134636001600160a01b0386166380ac58cd60e01b612bd7565b6134a75760405162461bcd60e51b81526020600482015260156024820152746e6f7420455243373231206f72204552433131353560581b6044820152606401610c6b565b6134b08561256b565b156134f25760405162461bcd60e51b81526020600482015260126024820152716e6f7420737570706f72742062756e646c6560701b6044820152606401610c6b565b6134fb856110da565b156135885760405163152a902d60e11b815260048101859052602481018490526001600160a01b03861690632a55205a90604401604080518083038186803b15801561354657600080fd5b505afa15801561355a573d6000803e3d6000fd5b505050506040513d601f19601f8201168201806040525081019061357e9190614305565b9092509050613606565b6001600160a01b03851660009081526101716020526040902054600160a01b900461ffff1615613606576001600160a01b038516600090815261017160205260409020546135e5908490600160a01b900461ffff16612710613308565b6001600160a01b038087166000908152610171602052604090205416925090505b935093915050565b600054610100900460ff1680613627575060005460ff16155b6136435760405162461bcd60e51b8152600401610c6b90614933565b600054610100900460ff16158015613665576000805461ffff19166101011790555b61366d613c7e565b613675613c7e565b61367d613c7e565b801561123a576000805461ff001916905550565b600054610100900460ff16806136aa575060005460ff16155b6136c65760405162461bcd60e51b8152600401610c6b90614933565b600054610100900460ff1615801561366d576000805461ffff1916610101179055613675613c7e565b600054610100900460ff1680613708575060005460ff16155b6137245760405162461bcd60e51b8152600401610c6b90614933565b600054610100900460ff16158015613746576000805461ffff19166101011790555b61367d613ce8565b600054610100900460ff1680613767575060005460ff16155b6137835760405162461bcd60e51b8152600401610c6b90614933565b600054610100900460ff161580156137a5576000805461ffff19166101011790555b61367d613dea565b805160005b81811015610dd95760008382815181106137dc57634e487b7160e01b600052603260045260246000fd5b602002602001015190506137ef81613e5b565b506001016137b2565b60606000613807836002614a48565b613812906002614a1c565b67ffffffffffffffff81111561383857634e487b7160e01b600052604160045260246000fd5b6040519080825280601f01601f191660200182016040528015613862576020820181803683370190505b509050600360fc1b8160008151811061388b57634e487b7160e01b600052603260045260246000fd5b60200101906001600160f81b031916908160001a905350600f60fb1b816001815181106138c857634e487b7160e01b600052603260045260246000fd5b60200101906001600160f81b031916908160001a90535060006138ec846002614a48565b6138f7906001614a1c565b90505b600181111561398b576f181899199a1a9b1b9c1cb0b131b232b360811b85600f166010811061393957634e487b7160e01b600052603260045260246000fd5b1a60f81b82828151811061395d57634e487b7160e01b600052603260045260246000fd5b60200101906001600160f81b031916908160001a90535060049490941c9361398481614aaa565b90506138fa565b5083156113195760405162461bcd60e51b815260206004820181905260248201527f537472696e67733a20686578206c656e67746820696e73756666696369656e746044820152606401610c6b565b60006139ed826301ffc9a760e01b613a0d565b8015610b925750613a06826001600160e01b0319613a0d565b1592915050565b604080516001600160e01b03198316602480830191909152825180830390910181526044909101909152602080820180516001600160e01b03166301ffc9a760e01b178152825160009392849283928392918391908a617530fa92503d91506000519050828015613a7f575060208210155b8015613a8b5750600081115b979650505050505050565b803b613afa5760405162461bcd60e51b815260206004820152602d60248201527f455243313936373a206e657720696d706c656d656e746174696f6e206973206e60448201526c1bdd08184818dbdb9d1c9858dd609a1b6064820152608401610c6b565b7f360894a13ba1a3210667c828492db98dca3e2076cc3735a920a3ca505d382bbc80546001600160a01b0319166001600160a01b0392909216919091179055565b6060823b613b9a5760405162461bcd60e51b815260206004820152602660248201527f416464726573733a2064656c65676174652063616c6c20746f206e6f6e2d636f6044820152651b9d1c9858dd60d21b6064820152608401610c6b565b600080846001600160a01b031684604051613bb59190614764565b600060405180830381855af49150503d8060008114613bf0576040519150601f19603f3d011682016040523d82523d6000602084013e613bf5565b606091505b5091509150613c1d828260405180606001604052806027815260200161534160279139614056565b95945050505050565b613c2f81613a96565b6040516001600160a01b038216907fbc7cd75a20ee27fd9adebab32041f755214dbc6bffa90cc0225b39da2e5c2d3b90600090a250565b60006113198284614a48565b60006113198284614a1c565b600054610100900460ff1680613c97575060005460ff16155b613cb35760405162461bcd60e51b8152600401610c6b90614933565b600054610100900460ff1615801561367d576000805461ffff1916610101179055801561123a576000805461ff001916905550565b600054610100900460ff1680613d01575060005460ff16155b613d1d5760405162461bcd60e51b8152600401610c6b90614933565b600054610100900460ff16158015613d3f576000805461ffff19166101011790555b604051613d4b9061410d565b604051809103906000f080158015613d67573d6000803e3d6000fd5b5060fb80546001600160a01b0319166001600160a01b039290921691821790556040805163204a7f0760e21b81529051638129fc1c9160048082019260009290919082900301818387803b158015613dbe57600080fd5b505af1158015613dd2573d6000803e3d6000fd5b50505050801561123a576000805461ff001916905550565b600054610100900460ff1680613e03575060005460ff16155b613e1f5760405162461bcd60e51b8152600401610c6b90614933565b600054610100900460ff16158015613e41576000805461ffff19166101011790555b600161012e55801561123a576000805461ff001916905550565b600181516003811115613e7e57634e487b7160e01b600052602160045260246000fd5b1415613f165780602001516001600160a01b03166323b872dd826040015183606001518460a001516040518463ffffffff1660e01b8152600401613ec4939291906147f5565b602060405180830381600087803b158015613ede57600080fd5b505af1158015613ef2573d6000803e3d6000fd5b505050506040513d601f19601f820116820180604052508101906111709190614543565b600281516003811115613f3957634e487b7160e01b600052602160045260246000fd5b1415613fa4578060a00151600114613f645760405163efcc00b160e01b815260040160405180910390fd5b80602001516001600160a01b03166323b872dd8260400151836060015184608001516040518463ffffffff1660e01b8152600401612ba9939291906147f5565b600381516003811115613fc757634e487b7160e01b600052602160045260246000fd5b141561403d5760208101516040808301516060840151608085015160a0808701519451637921219560e11b81526001600160a01b0394851660048201529284166024840152604483019190915260648201939093526084810192909252600060a48301529091169063f242432a9060c401612ba9565b604051631e4cbc7f60e21b815260040160405180910390fd5b60608315614065575081611319565b8251156140755782518084602001fd5b8160405162461bcd60e51b8152600401610c6b9190614868565b604051806101800160405280600081526020016000815260200160006001600160a01b0316815260200160006001600160a01b03168152602001600081526020016000815260200160006001600160a01b03168152602001600015158152602001600081526020016000815260200160008152602001600081525090565b6107b780614b6a83390190565b60008083601f84011261412b578182fd5b50813567ffffffffffffffff811115614142578182fd5b6020830191508360208260051b850101111561415d57600080fd5b9250929050565b600082601f830112614174578081fd5b81516020614189614184836149f8565b6149c7565b80838252828201915082860187848660051b89010111156141a8578586fd5b855b858110156141c6578151845292840192908401906001016141aa565b5090979650505050505050565b803561ffff8116811461164e57600080fd5b6000602082840312156141f6578081fd5b813561131981614b54565b600060208284031215614212578081fd5b815161131981614b54565b600080600060608486031215614231578182fd5b833561423c81614b54565b9250602084013561424c81614b54565b915061425a604085016141d3565b90509250925092565b60008060408385031215614275578182fd5b823561428081614b54565b915060208381013567ffffffffffffffff8082111561429d578384fd5b818601915086601f8301126142b0578384fd5b8135818111156142c2576142c2614b3e565b6142d4601f8201601f191685016149c7565b915080825287848285010111156142e9578485fd5b8084840185840137810190920192909252919491935090915050565b60008060408385031215614317578182fd5b825161432281614b54565b6020939093015192949293505050565b600080600060608486031215614346578283fd5b833561435181614b54565b925060208401359150604084013561436881614b54565b809150509250925092565b600080600060608486031215614387578081fd5b833561439281614b54565b95602085013595506040909401359392505050565b600080600080600080606087890312156143bf578384fd5b863567ffffffffffffffff808211156143d6578586fd5b6143e28a838b0161411a565b909850965060208901359150808211156143fa578586fd5b6144068a838b0161411a565b9096509450604089013591508082111561441e578384fd5b5061442b89828a0161411a565b979a9699509497509295939492505050565b6000806040838503121561444f578182fd5b825167ffffffffffffffff80821115614466578384fd5b818501915085601f830112614479578384fd5b81516020614489614184836149f8565b8083825282820191508286018a848660051b89010111156144a8578889fd5b8896505b848710156144d35780516144bf81614b54565b8352600196909601959183019183016144ac565b50918801519196509093505050808211156144ec578283fd5b506144f985828601614164565b9150509250929050565b60008060208385031215614515578182fd5b823567ffffffffffffffff81111561452b578283fd5b6145378582860161411a565b90969095509350505050565b600060208284031215614554578081fd5b81518015158114611319578182fd5b600060208284031215614574578081fd5b5035919050565b6000806040838503121561458d578182fd5b82359150602083013561459f81614b54565b809150509250929050565b6000602082840312156145bb578081fd5b81356001600160e01b031981168114611319578182fd5b60008060008060008060c087890312156145ea578384fd5b8635600481106145f8578485fd5b9550602087013561460881614b54565b9450604087013561461881614b54565b9350606087013561462881614b54565b9598949750929560808101359460a0909101359350915050565b600080600060608486031215614656578081fd5b61465f846141d3565b925061424c602085016141d3565b60006020828403121561467e578081fd5b5051919050565b60008060408385031215614697578182fd5b823591506146a7602084016141d3565b90509250929050565b805182526020810151602083015260408101516146d860408401826001600160a01b03169052565b5060608101516146f360608401826001600160a01b03169052565b506080810151608083015260a081015160a083015260c081015161472260c08401826001600160a01b03169052565b5060e081015161473660e084018215159052565b5061010081810151908301526101208082015190830152610140808201519083015261016090810151910152565b60008251614776818460208701614a7e565b9190910192915050565b7f416363657373436f6e74726f6c3a206163636f756e74200000000000000000008152600083516147b8816017850160208801614a7e565b7001034b99036b4b9b9b4b733903937b6329607d1b60179184019182015283516147e9816028840160208801614a7e565b01602801949350505050565b6001600160a01b039384168152919092166020820152604081019190915260600190565b6020808252825182820181905260009190848201906040850190845b8181101561485c576148488385516146b0565b928401926101809290920191600101614835565b50909695505050505050565b6020815260008251806020840152614887816040850160208701614a7e565b601f01601f19169190910160400192915050565b6020808252602c908201527f46756e6374696f6e206d7573742062652063616c6c6564207468726f7567682060408201526b19195b1959d85d1958d85b1b60a21b606082015260800190565b6020808252602c908201527f46756e6374696f6e206d7573742062652063616c6c6564207468726f7567682060408201526b6163746976652070726f787960a01b606082015260800190565b6020808252602e908201527f496e697469616c697a61626c653a20636f6e747261637420697320616c72656160408201526d191e481a5b9a5d1a585b1a5e995960921b606082015260800190565b6020808252601f908201527f5265656e7472616e637947756172643a207265656e7472616e742063616c6c00604082015260600190565b6101808101610b9282846146b0565b604051601f8201601f1916810167ffffffffffffffff811182821017156149f0576149f0614b3e565b604052919050565b600067ffffffffffffffff821115614a1257614a12614b3e565b5060051b60200190565b60008219821115614a2f57614a2f614b12565b500190565b600082614a4357614a43614b28565b500490565b6000816000190483118215151615614a6257614a62614b12565b500290565b600082821015614a7957614a79614b12565b500390565b60005b83811015614a99578181015183820152602001614a81565b8381111561149e5750506000910152565b600081614ab957614ab9614b12565b506000190190565b600061ffff80831681811415614ad957614ad9614b12565b6001019392505050565b6000600019821415614af757614af7614b12565b5060010190565b600082614b0d57614b0d614b28565b500690565b634e487b7160e01b600052601160045260246000fd5b634e487b7160e01b600052601260045260246000fd5b634e487b7160e01b600052604160045260246000fd5b6001600160a01b038116811461123a57600080fdfe608060405234801561001057600080fd5b50610797806100206000396000f3fe6080604052600436106100705760003560e01c80638da5cb5b1161004e5780638da5cb5b146100c1578063e3a9db1a146100ee578063f2fde38b14610132578063f340fa011461015257600080fd5b806351cff8d914610075578063715018a6146100975780638129fc1c146100ac575b600080fd5b34801561008157600080fd5b50610095610090366004610682565b610165565b005b3480156100a357600080fd5b50610095610207565b3480156100b857600080fd5b5061009561023d565b3480156100cd57600080fd5b506033546040516001600160a01b0390911681526020015b60405180910390f35b3480156100fa57600080fd5b50610124610109366004610682565b6001600160a01b031660009081526065602052604090205490565b6040519081526020016100e5565b34801561013e57600080fd5b5061009561014d366004610682565b6102b1565b610095610160366004610682565b610349565b6033546001600160a01b031633146101985760405162461bcd60e51b815260040161018f906106f3565b60405180910390fd5b6001600160a01b03811660008181526065602052604081208054919055906101c090826103dd565b816001600160a01b03167f7084f5476618d8e60b11ef0d7d3f06914655adb8793e28ff7f018d4c76d505d5826040516101fb91815260200190565b60405180910390a25050565b6033546001600160a01b031633146102315760405162461bcd60e51b815260040161018f906106f3565b61023b60006104fb565b565b600054610100900460ff1680610256575060005460ff16155b6102725760405162461bcd60e51b815260040161018f906106a5565b600054610100900460ff16158015610294576000805461ffff19166101011790555b61029c61054d565b80156102ae576000805461ff00191690555b50565b6033546001600160a01b031633146102db5760405162461bcd60e51b815260040161018f906106f3565b6001600160a01b0381166103405760405162461bcd60e51b815260206004820152602660248201527f4f776e61626c653a206e6577206f776e657220697320746865207a65726f206160448201526564647265737360d01b606482015260840161018f565b6102ae816104fb565b6033546001600160a01b031633146103735760405162461bcd60e51b815260040161018f906106f3565b6001600160a01b03811660009081526065602052604081208054349283929161039d908490610728565b90915550506040518181526001600160a01b038316907f2da466a7b24304f47e87fa2e1e5a81b9831ce54fec19055ce277ca2f39ba42c4906020016101fb565b8047101561042d5760405162461bcd60e51b815260206004820152601d60248201527f416464726573733a20696e73756666696369656e742062616c616e6365000000604482015260640161018f565b6000826001600160a01b03168260405160006040518083038185875af1925050503d806000811461047a576040519150601f19603f3d011682016040523d82523d6000602084013e61047f565b606091505b50509050806104f65760405162461bcd60e51b815260206004820152603a60248201527f416464726573733a20756e61626c6520746f2073656e642076616c75652c207260448201527f6563697069656e74206d61792068617665207265766572746564000000000000606482015260840161018f565b505050565b603380546001600160a01b038381166001600160a01b0319831681179093556040519116919082907f8be0079c531659141344cd1fd0a4f28419497f9722a3daafe3b4186f6b6457e090600090a35050565b600054610100900460ff1680610566575060005460ff16155b6105825760405162461bcd60e51b815260040161018f906106a5565b600054610100900460ff161580156105a4576000805461ffff19166101011790555b6105ac6105b8565b6105b4610622565b61029c5b600054610100900460ff16806105d1575060005460ff16155b6105ed5760405162461bcd60e51b815260040161018f906106a5565b600054610100900460ff1615801561029c576000805461ffff191661010117905580156102ae576000805461ff001916905550565b600054610100900460ff168061063b575060005460ff16155b6106575760405162461bcd60e51b815260040161018f906106a5565b600054610100900460ff16158015610679576000805461ffff19166101011790555b61029c336104fb565b600060208284031215610693578081fd5b813561069e8161074c565b9392505050565b6020808252602e908201527f496e697469616c697a61626c653a20636f6e747261637420697320616c72656160408201526d191e481a5b9a5d1a585b1a5e995960921b606082015260800190565b6020808252818101527f4f776e61626c653a2063616c6c6572206973206e6f7420746865206f776e6572604082015260600190565b6000821982111561074757634e487b7160e01b81526011600452602481fd5b500190565b6001600160a01b03811681146102ae57600080fdfea2646970667358221220c6106604f82bafcd7b8430b0041b8c5862364ea5b3f232a4c1a0423621d34b6964736f6c634300080400335620a1113a72b02a617976b3f6b15600dd7a8b3a916a9ca01e23119d989a0543416464726573733a206c6f772d6c6576656c2064656c65676174652063616c6c206661696c6564a26469706673582212207fb751edbc874b58478bb2319f5278cbefa28b6ba1357225b28c5d90d704088764736f6c63430008040033",
  "linkReferences": {},
  "deployedLinkReferences": {}
}